{
  "_format": "hh-sol-artifact-1",
  "contractName": "Raffle",
  "sourceName": "contracts/Raffle.sol",
  "abi": [
    {
      "inputs": [
        {
          "internalType": "uint256",
          "name": "entranceFee",
          "type": "uint256"
        },
        {
          "internalType": "address",
          "name": "vrfCoordinatorV2",
          "type": "address"
        },
        {
          "internalType": "uint64",
          "name": "subscriptionId",
          "type": "uint64"
        },
        {
          "internalType": "bytes32",
          "name": "keyHash",
          "type": "bytes32"
        },
        {
          "internalType": "uint32",
          "name": "callbackGasLimit",
          "type": "uint32"
        },
        {
          "internalType": "uint256",
          "name": "interval",
          "type": "uint256"
        }
      ],
      "stateMutability": "nonpayable",
      "type": "constructor"
    },
    {
      "inputs": [
        {
          "internalType": "address",
          "name": "have",
          "type": "address"
        },
        {
          "internalType": "address",
          "name": "want",
          "type": "address"
        }
      ],
      "name": "OnlyCoordinatorCanFulfill",
      "type": "error"
    },
    {
      "inputs": [],
      "name": "Raffle__NotEnoughEthEntered",
      "type": "error"
    },
    {
      "inputs": [],
      "name": "Raffle__TransferFailed",
      "type": "error"
    },
    {
      "inputs": [
        {
          "internalType": "enum Raffle.RaffleState",
          "name": "raffleState",
          "type": "uint8"
        },
        {
          "internalType": "uint256",
          "name": "totalPlayers",
          "type": "uint256"
        },
        {
          "internalType": "uint256",
          "name": "contractBalance",
          "type": "uint256"
        },
        {
          "internalType": "uint256",
          "name": "lastTimestamp",
          "type": "uint256"
        }
      ],
      "name": "Raffle__UpKeepNotNeeded",
      "type": "error"
    },
    {
      "anonymous": false,
      "inputs": [
        {
          "indexed": true,
          "internalType": "address",
          "name": "player",
          "type": "address"
        }
      ],
      "name": "RaffleEnter",
      "type": "event"
    },
    {
      "anonymous": false,
      "inputs": [
        {
          "indexed": true,
          "internalType": "uint256",
          "name": "requestId",
          "type": "uint256"
        }
      ],
      "name": "RequestedRaffleWinnder",
      "type": "event"
    },
    {
      "anonymous": false,
      "inputs": [
        {
          "indexed": true,
          "internalType": "address",
          "name": "winner",
          "type": "address"
        }
      ],
      "name": "WinnerPicked",
      "type": "event"
    },
    {
      "inputs": [
        {
          "internalType": "bytes",
          "name": "",
          "type": "bytes"
        }
      ],
      "name": "checkUpkeep",
      "outputs": [
        {
          "internalType": "bool",
          "name": "shouldPerformUpKeep",
          "type": "bool"
        },
        {
          "internalType": "bytes",
          "name": "",
          "type": "bytes"
        }
      ],
      "stateMutability": "view",
      "type": "function"
    },
    {
      "inputs": [],
      "name": "enterRaffle",
      "outputs": [],
      "stateMutability": "payable",
      "type": "function"
    },
    {
      "inputs": [],
      "name": "getEntraneFee",
      "outputs": [
        {
          "internalType": "uint256",
          "name": "",
          "type": "uint256"
        }
      ],
      "stateMutability": "view",
      "type": "function"
    },
    {
      "inputs": [],
      "name": "getInterval",
      "outputs": [
        {
          "internalType": "uint256",
          "name": "",
          "type": "uint256"
        }
      ],
      "stateMutability": "view",
      "type": "function"
    },
    {
      "inputs": [],
      "name": "getLastTimestamp",
      "outputs": [
        {
          "internalType": "uint256",
          "name": "",
          "type": "uint256"
        }
      ],
      "stateMutability": "view",
      "type": "function"
    },
    {
      "inputs": [],
      "name": "getNumWords",
      "outputs": [
        {
          "internalType": "uint256",
          "name": "",
          "type": "uint256"
        }
      ],
      "stateMutability": "pure",
      "type": "function"
    },
    {
      "inputs": [],
      "name": "getNumberOfPlayers",
      "outputs": [
        {
          "internalType": "uint256",
          "name": "",
          "type": "uint256"
        }
      ],
      "stateMutability": "view",
      "type": "function"
    },
    {
      "inputs": [
        {
          "internalType": "uint256",
          "name": "index",
          "type": "uint256"
        }
      ],
      "name": "getPlayer",
      "outputs": [
        {
          "internalType": "address",
          "name": "",
          "type": "address"
        }
      ],
      "stateMutability": "view",
      "type": "function"
    },
    {
      "inputs": [],
      "name": "getRaffleState",
      "outputs": [
        {
          "internalType": "enum Raffle.RaffleState",
          "name": "",
          "type": "uint8"
        }
      ],
      "stateMutability": "view",
      "type": "function"
    },
    {
      "inputs": [],
      "name": "getRecentWinner",
      "outputs": [
        {
          "internalType": "address",
          "name": "",
          "type": "address"
        }
      ],
      "stateMutability": "view",
      "type": "function"
    },
    {
      "inputs": [],
      "name": "i_entranceFee",
      "outputs": [
        {
          "internalType": "uint256",
          "name": "",
          "type": "uint256"
        }
      ],
      "stateMutability": "view",
      "type": "function"
    },
    {
      "inputs": [
        {
          "internalType": "bytes",
          "name": "",
          "type": "bytes"
        }
      ],
      "name": "performUpkeep",
      "outputs": [],
      "stateMutability": "nonpayable",
      "type": "function"
    },
    {
      "inputs": [
        {
          "internalType": "uint256",
          "name": "requestId",
          "type": "uint256"
        },
        {
          "internalType": "uint256[]",
          "name": "randomWords",
          "type": "uint256[]"
        }
      ],
      "name": "rawFulfillRandomWords",
      "outputs": [],
      "stateMutability": "nonpayable",
      "type": "function"
    }
  ],
  "bytecode": "0x6101606040523480156200001257600080fd5b50604051620017b5380380620017b58339818101604052810190620000389190620001ad565b848073ffffffffffffffffffffffffffffffffffffffff1660808173ffffffffffffffffffffffffffffffffffffffff1660601b81525050508560a081815250508473ffffffffffffffffffffffffffffffffffffffff166101408173ffffffffffffffffffffffffffffffffffffffff1660601b815250508367ffffffffffffffff1660c08167ffffffffffffffff1660c01b815250508261010081815250508163ffffffff166101208163ffffffff1660e01b815250508060e08181525050426001819055506000600260146101000a81548160ff02191690836001811115620001295762000128620002b5565b5b02179055505050505050506200036b565b6000815190506200014b81620002e9565b92915050565b600081519050620001628162000303565b92915050565b60008151905062000179816200031d565b92915050565b600081519050620001908162000337565b92915050565b600081519050620001a78162000351565b92915050565b60008060008060008060c08789031215620001cd57620001cc620002e4565b5b6000620001dd89828a0162000168565b9650506020620001f089828a016200013a565b95505060406200020389828a0162000196565b94505060606200021689828a0162000151565b93505060806200022989828a016200017f565b92505060a06200023c89828a0162000168565b9150509295509295509295565b6000620002568262000267565b9050919050565b6000819050919050565b600073ffffffffffffffffffffffffffffffffffffffff82169050919050565b6000819050919050565b600063ffffffff82169050919050565b600067ffffffffffffffff82169050919050565b7f4e487b7100000000000000000000000000000000000000000000000000000000600052602160045260246000fd5b600080fd5b620002f48162000249565b81146200030057600080fd5b50565b6200030e816200025d565b81146200031a57600080fd5b50565b620003288162000287565b81146200033457600080fd5b50565b620003428162000291565b81146200034e57600080fd5b50565b6200035c81620002a1565b81146200036857600080fd5b50565b60805160601c60a05160c05160c01c60e051610100516101205160e01c6101405160601c6113c7620003ee6000396000610558015260006105d80152600061059401526000818161071b01526107ad015260006105b50152600081816103cf01528181610787015261081c01526000818161030f015261036301526113c76000f3fe6080604052600436106100c25760003560e01c806353a2c19a1161007f57806391ad27b41161005957806391ad27b414610238578063e55ae4e814610263578063f8bae51d146102a0578063fd6673f5146102cb576100c2565b806353a2c19a146101a45780636e04ff0d146101cf5780637ea3e6c11461020d576100c2565b8063115cbaf5146100c75780631fe543e3146100f25780632cfcc5391461011b57806337899770146101255780634585e33b14610150578063473f1ddc14610179575b600080fd5b3480156100d357600080fd5b506100dc6102f6565b6040516100e99190610fa4565b60405180910390f35b3480156100fe57600080fd5b5061011960048036038101906101149190610d98565b61030d565b005b6101236103cd565b005b34801561013157600080fd5b5061013a6104cf565b6040516101479190611004565b60405180910390f35b34801561015c57600080fd5b5061017760048036038101906101729190610ca8565b6104d9565b005b34801561018557600080fd5b5061018e6106a0565b60405161019b9190610edd565b60405180910390f35b3480156101b057600080fd5b506101b96106ca565b6040516101c69190611004565b60405180910390f35b3480156101db57600080fd5b506101f660048036038101906101f19190610cf5565b6106d9565b604051610204929190610f21565b60405180910390f35b34801561021957600080fd5b50610222610785565b60405161022f9190611004565b60405180910390f35b34801561024457600080fd5b5061024d6107a9565b60405161025a9190611004565b60405180910390f35b34801561026f57600080fd5b5061028a60048036038101906102859190610d3e565b6107d1565b6040516102979190610edd565b60405180910390f35b3480156102ac57600080fd5b506102b5610818565b6040516102c29190611004565b60405180910390f35b3480156102d757600080fd5b506102e0610840565b6040516102ed9190611004565b60405180910390f35b6000600260149054906101000a900460ff16905090565b7f000000000000000000000000000000000000000000000000000000000000000073ffffffffffffffffffffffffffffffffffffffff163373ffffffffffffffffffffffffffffffffffffffff16146103bf57337f00000000000000000000000000000000000000000000000000000000000000006040517f1cf993f40000000000000000000000000000000000000000000000000000000081526004016103b6929190610ef8565b60405180910390fd5b6103c9828261084c565b5050565b7f0000000000000000000000000000000000000000000000000000000000000000341015610427576040517f066d781f00000000000000000000000000000000000000000000000000000000815260040160405180910390fd5b6000339080600181540180825580915050600190039060005260206000200160009091909190916101000a81548173ffffffffffffffffffffffffffffffffffffffff021916908373ffffffffffffffffffffffffffffffffffffffff1602179055503373ffffffffffffffffffffffffffffffffffffffff167f0805e1d667bddb8a95f0f09880cf94f403fb596ce79928d9f29b74203ba284d460405160405180910390a2565b6000600154905090565b60006104f3604051806020016040528060008152506106d9565b5090508061055457600260149054906101000a900460ff16600080549050476001546040517fbff3c3a000000000000000000000000000000000000000000000000000000000815260040161054b9493929190610fbf565b60405180910390fd5b60007f000000000000000000000000000000000000000000000000000000000000000073ffffffffffffffffffffffffffffffffffffffff16635d3b1d307f00000000000000000000000000000000000000000000000000000000000000007f000000000000000000000000000000000000000000000000000000000000000060037f000000000000000000000000000000000000000000000000000000000000000060016040518663ffffffff1660e01b8152600401610619959493929190610f51565b602060405180830381600087803b15801561063357600080fd5b505af1158015610647573d6000803e3d6000fd5b505050506040513d601f19601f8201168201806040525081019061066b9190610d6b565b9050807f4c16966b33b509b461c7420a0c3b8524750dc2aee2f6de0763affaef159406c860405160405180910390a250505050565b6000600260009054906101000a900473ffffffffffffffffffffffffffffffffffffffff16905090565b6000600163ffffffff16905090565b6000606060008060018111156106f2576106f16112a7565b5b600260149054906101000a900460ff166001811115610714576107136112a7565b5b14905060007f00000000000000000000000000000000000000000000000000000000000000006001544261074891906110c8565b119050600080600080549050119050600080471190508380156107685750825b80156107715750815b801561077a5750805b955050505050915091565b7f000000000000000000000000000000000000000000000000000000000000000081565b60007f0000000000000000000000000000000000000000000000000000000000000000905090565b60008082815481106107e6576107e56112d6565b5b9060005260206000200160009054906101000a900473ffffffffffffffffffffffffffffffffffffffff169050919050565b60007f0000000000000000000000000000000000000000000000000000000000000000905090565b60008080549050905090565b6000600a82600081518110610864576108636112d6565b5b60200260200101516108769190611218565b9050600080828154811061088d5761088c6112d6565b5b9060005260206000200160009054906101000a900473ffffffffffffffffffffffffffffffffffffffff16905080600260006101000a81548173ffffffffffffffffffffffffffffffffffffffff021916908373ffffffffffffffffffffffffffffffffffffffff1602179055506001600260146101000a81548160ff02191690836001811115610921576109206112a7565b5b0217905550600067ffffffffffffffff81111561094157610940611305565b5b60405190808252806020026020018201604052801561096f5781602001602082028036833780820191505090505b5060009080519060200190610985929190610a73565b5060008173ffffffffffffffffffffffffffffffffffffffff16476040516109ac90610ec8565b60006040518083038185875af1925050503d80600081146109e9576040519150601f19603f3d011682016040523d82523d6000602084013e6109ee565b606091505b5050905080610a29576040517fa1d04b3900000000000000000000000000000000000000000000000000000000815260040160405180910390fd5b8173ffffffffffffffffffffffffffffffffffffffff167f5b690ec4a06fe979403046eaeea5b3ce38524683c3001f662c8b5a829632f7df60405160405180910390a25050505050565b828054828255906000526020600020908101928215610aec579160200282015b82811115610aeb5782518260006101000a81548173ffffffffffffffffffffffffffffffffffffffff021916908373ffffffffffffffffffffffffffffffffffffffff16021790555091602001919060010190610a93565b5b509050610af99190610afd565b5090565b5b80821115610b16576000816000905550600101610afe565b5090565b6000610b2d610b2884611044565b61101f565b90508083825260208201905082856020860282011115610b5057610b4f61133e565b5b60005b85811015610b805781610b668882610c7e565b845260208401935060208301925050600181019050610b53565b5050509392505050565b6000610b9d610b9884611070565b61101f565b905082815260208101848484011115610bb957610bb8611343565b5b610bc48482856111a5565b509392505050565b600082601f830112610be157610be0611339565b5b8135610bf1848260208601610b1a565b91505092915050565b60008083601f840112610c1057610c0f611339565b5b8235905067ffffffffffffffff811115610c2d57610c2c611334565b5b602083019150836001820283011115610c4957610c4861133e565b5b9250929050565b600082601f830112610c6557610c64611339565b5b8135610c75848260208601610b8a565b91505092915050565b600081359050610c8d8161137a565b92915050565b600081519050610ca28161137a565b92915050565b60008060208385031215610cbf57610cbe61134d565b5b600083013567ffffffffffffffff811115610cdd57610cdc611348565b5b610ce985828601610bfa565b92509250509250929050565b600060208284031215610d0b57610d0a61134d565b5b600082013567ffffffffffffffff811115610d2957610d28611348565b5b610d3584828501610c50565b91505092915050565b600060208284031215610d5457610d5361134d565b5b6000610d6284828501610c7e565b91505092915050565b600060208284031215610d8157610d8061134d565b5b6000610d8f84828501610c93565b91505092915050565b60008060408385031215610daf57610dae61134d565b5b6000610dbd85828601610c7e565b925050602083013567ffffffffffffffff811115610dde57610ddd611348565b5b610dea85828601610bcc565b9150509250929050565b610dfd816110fc565b82525050565b610e0c8161110e565b82525050565b610e1b8161111a565b82525050565b6000610e2c826110a1565b610e3681856110ac565b9350610e468185602086016111b4565b610e4f81611352565b840191505092915050565b610e6381611193565b82525050565b6000610e766000836110bd565b9150610e8182611363565b600082019050919050565b610e9581611137565b82525050565b610ea481611165565b82525050565b610eb38161116f565b82525050565b610ec28161117f565b82525050565b6000610ed382610e69565b9150819050919050565b6000602082019050610ef26000830184610df4565b92915050565b6000604082019050610f0d6000830185610df4565b610f1a6020830184610df4565b9392505050565b6000604082019050610f366000830185610e03565b8181036020830152610f488184610e21565b90509392505050565b600060a082019050610f666000830188610e12565b610f736020830187610eb9565b610f806040830186610e8c565b610f8d6060830185610eaa565b610f9a6080830184610eaa565b9695505050505050565b6000602082019050610fb96000830184610e5a565b92915050565b6000608082019050610fd46000830187610e5a565b610fe16020830186610e9b565b610fee6040830185610e9b565b610ffb6060830184610e9b565b95945050505050565b60006020820190506110196000830184610e9b565b92915050565b600061102961103a565b905061103582826111e7565b919050565b6000604051905090565b600067ffffffffffffffff82111561105f5761105e611305565b5b602082029050602081019050919050565b600067ffffffffffffffff82111561108b5761108a611305565b5b61109482611352565b9050602081019050919050565b600081519050919050565b600082825260208201905092915050565b600081905092915050565b60006110d382611165565b91506110de83611165565b9250828210156110f1576110f0611249565b5b828203905092915050565b600061110782611145565b9050919050565b60008115159050919050565b6000819050919050565b600081905061113282611366565b919050565b600061ffff82169050919050565b600073ffffffffffffffffffffffffffffffffffffffff82169050919050565b6000819050919050565b600063ffffffff82169050919050565b600067ffffffffffffffff82169050919050565b600061119e82611124565b9050919050565b82818337600083830152505050565b60005b838110156111d25780820151818401526020810190506111b7565b838111156111e1576000848401525b50505050565b6111f082611352565b810181811067ffffffffffffffff8211171561120f5761120e611305565b5b80604052505050565b600061122382611165565b915061122e83611165565b92508261123e5761123d611278565b5b828206905092915050565b7f4e487b7100000000000000000000000000000000000000000000000000000000600052601160045260246000fd5b7f4e487b7100000000000000000000000000000000000000000000000000000000600052601260045260246000fd5b7f4e487b7100000000000000000000000000000000000000000000000000000000600052602160045260246000fd5b7f4e487b7100000000000000000000000000000000000000000000000000000000600052603260045260246000fd5b7f4e487b7100000000000000000000000000000000000000000000000000000000600052604160045260246000fd5b600080fd5b600080fd5b600080fd5b600080fd5b600080fd5b600080fd5b6000601f19601f8301169050919050565b50565b60028110611377576113766112a7565b5b50565b61138381611165565b811461138e57600080fd5b5056fea26469706673582212207c875231291db7c36faf982dcef814f017eca6f3af873554b7af554554ce290b64736f6c63430008070033",
  "linkReferences": {},
  "deployedLinkReferences": {}
}